{
  "_format": "hh-sol-artifact-1",
  "contractName": "BUSDHandler",
  "sourceName": "contracts/BUSDHandler.sol",
  "abi": [
    {
      "inputs": [
        {
          "internalType": "address",
          "name": "_busdToken",
          "type": "address"
        }
      ],
      "stateMutability": "nonpayable",
      "type": "constructor"
    },
    {
      "anonymous": false,
      "inputs": [
        {
          "indexed": true,
          "internalType": "address",
          "name": "recipient",
          "type": "address"
        },
        {
          "indexed": false,
          "internalType": "uint256",
          "name": "amount",
          "type": "uint256"
        }
      ],
      "name": "Transfer",
      "type": "event"
    },
    {
      "inputs": [],
      "name": "busdToken",
      "outputs": [
        {
          "internalType": "address",
          "name": "",
          "type": "address"
        }
      ],
      "stateMutability": "view",
      "type": "function"
    },
    {
      "inputs": [
        {
          "internalType": "address",
          "name": "recipient",
          "type": "address"
        },
        {
          "internalType": "uint256",
          "name": "amount",
          "type": "uint256"
        }
      ],
      "name": "forwardBUSD",
      "outputs": [],
      "stateMutability": "nonpayable",
      "type": "function"
    },
    {
      "inputs": [],
      "name": "owner",
      "outputs": [
        {
          "internalType": "address",
          "name": "",
          "type": "address"
        }
      ],
      "stateMutability": "view",
      "type": "function"
    },
    {
      "inputs": [
        {
          "internalType": "uint256",
          "name": "",
          "type": "uint256"
        }
      ],
      "name": "receiveBUSD",
      "outputs": [],
      "stateMutability": "view",
      "type": "function"
    }
  ],
  "bytecode": "0x608060405234801561001057600080fd5b5060405161047638038061047683398101604081905261002f91610062565b60008054336001600160a01b031991821617909155600180549091166001600160a01b0392909216919091179055610092565b60006020828403121561007457600080fd5b81516001600160a01b038116811461008b57600080fd5b9392505050565b6103d5806100a16000396000f3fe608060405234801561001057600080fd5b506004361061004c5760003560e01c806365e85897146100515780638da5cb5b14610066578063de0e701414610095578063f25fd168146100a8575b600080fd5b61006461005f366004610325565b6100bb565b005b600054610079906001600160a01b031681565b6040516001600160a01b03909116815260200160405180910390f35b600154610079906001600160a01b031681565b6100646100b636600461035d565b6102b9565b6000546001600160a01b031633146101125760405162461bcd60e51b81526020600482015260156024820152742cb7ba9030b932903737ba103a34329037bbb732b960591b60448201526064015b60405180910390fd5b6001600160a01b0382166101685760405162461bcd60e51b815260206004820152601960248201527f496e76616c696420726563697069656e742061646472657373000000000000006044820152606401610109565b600081116101b85760405162461bcd60e51b815260206004820181905260248201527f416d6f756e74206d7573742062652067726561746572207468616e207a65726f6044820152606401610109565b60015460405163a9059cbb60e01b81526001600160a01b038481166004830152602482018490529091169063a9059cbb906044016020604051808303816000875af115801561020b573d6000803e3d6000fd5b505050506040513d601f19601f8201168201806040525081019061022f9190610376565b6102725760405162461bcd60e51b8152602060048201526014602482015273109554d1081d1c985b9cd9995c8819985a5b195960621b6044820152606401610109565b816001600160a01b03167f69ca02dd4edd7bf0a4abb9ed3b7af3f14778db5d61921c7dc7cd545266326de2826040516102ad91815260200190565b60405180910390a25050565b6001546001600160a01b031633146103225760405162461bcd60e51b815260206004820152602660248201527f4f6e6c79204255534420746f6b656e20636f6e74726163742063616e2063616c6044820152656c207468697360d01b6064820152608401610109565b50565b6000806040838503121561033857600080fd5b82356001600160a01b038116811461034f57600080fd5b946020939093013593505050565b60006020828403121561036f57600080fd5b5035919050565b60006020828403121561038857600080fd5b8151801515811461039857600080fd5b939250505056fea2646970667358221220b0e1098ae6ea42c1be0712cd592db8f1356a20d4ba2722d02164705229fe5fc664736f6c63430008130033",
  "linkReferences": {},
  "deployedLinkReferences": {}
}